:020000040800F2
:1000000000500020C50600086106000869060008C7
:10001000710600087906000881060008000000004B
:100020000000000000000000000000008906000839
:100030009506000800000000A1060008AD060008B3
:100040000D0700080D0700080D0700080D07000840
:100050000D0700080D070008C50500080D0700087A
:100060000D0700080D0700080D0700080D07000820
:100070000D0700080D0700080D0700080D07000810
:100080000D0700080D0700080D0700080D07000800
:100090000D0700080D0700080D0700080D070008F0
:1000A0000D0700080D0700080D0700080D070008E0
:1000B000D5050008E90500080D0700080D07000830
:1000C0000D0700080D0700080D0700080D070008C0
:1000D0000D0700080D0700080D0700080D070008B0
:1000E0000D0700080D0700080D07000800000000BC
:1000F0000000000000000000000000000000000000
:0C01000000000000000000005FF808F1A3
:10010C0010B5054C237833B9044B13B10448AFF345
:10011C0000800123237010BD10000020000000009F
:10012C008C1A000808B5034B1BB103490348AFF305
:10013C00008008BD00000000140000208C1A00088C
:10014C0080B483B000AF0346FB71FB79B42B01D9AB
:10015C00B423FB71FB7942F2107202FB03F39B0890
:10016C00044AA2FB03239B0818460C37BD4680BCEF
:10017C00704700BF176CC11680B582B000AF034644
:10018C00FB71FB791846FFF7DBFF0346024A13604D
:10019C0000BF0837BD4680BD0000002080B582B08E
:1001AC0000AF78600C4B1B6800225A620A4B1B682C
:1001BC007A68013ADA627B68013B074AD360064BE6
:1001CC001B686FF001021A61034801F019FA00BFB5
:1001DC000837BD4680BD00BF3800002080B500AF99
:1001EC000A4B1B6800225A62084B1B686322DA62B6
:1001FC00064B6322DA60054B1B686FF001021A6133
:10020C00024801F0FDF900BF80BD00BF8000002056
:10021C0080B500AF00220221064800F08BFD0022C1
:10022C000421044800F086FD034B00221A7000BF25
:10023C0080BD00BF000801403400002080B584B0B0
:10024C0000AF0346FB80FB88012B2ED100F0B2FAE5
:10025C00F860174B1B68FA68D31A012B24D9144A7F
:10026C00FB681360134B1B685B6A134A1360134BD8
:10027C0001221A70124B1B780133DAB2104B1A7030
:10028C000F4B1B7803F00103DBB2002B03D00D4B9B
:10029C0001221A7002E00B4B02221A700A4B1B68E7
:1002AC001846FFF77BFF00E000BF1037BD4680BD4E
:1002BC00C800002038000020300000202D00002055
:1002CC00CC0000202C0000200000002080B582B063
:1002DC0000AF78607B681B68B3F1804F1DD1164866
:1002EC0001F0E0F9154B1B78DBB2012B05D1012293
:1002FC000221134800F01EFD09E0104B1B78DBB205
:10030C00022B04D1012204210D4800F013FD0D4BEA
:10031C0001221A70FFF762FF09E07B681B680A4A2A
:10032C00934204D1094801F0BDF9FFF771FF00BFFA
:10033C000837BD4680BD00BF380000202C000020CF
:10034C000008014034000020000400408000002020
:10035C0080B582B000AF174BDB69164A43F001033E
:10036C00D361144BDB6903F001037B607B68124B98
:10037C004FF080421A60104B47225A600E4B0022FD
:10038C009A600D4B42F20F72DA600B4B00221A612D
:10039C00094B80229A61084801F0DAF80022012109
:1003AC001C2000F00CFB1C2000F025FB00BF0837C4
:1003BC00BD4680BD001002403800002080B582B0E0
:1003CC0000AF164BDB69154A43F00203D361134BA4
:1003DC00DB6903F002037B607B68114B114A1A60E6
:1003EC000F4B47225A600E4B00229A600C4B632233
:1003FC00DA600B4B00221A61094B80229A61084883
:10040C0001F0A6F8002201211D2000F0D8FA1D20D1
:10041C0000F0F1FA00BF0837BD4680BD0010024065
:10042C00800000200004004080B588B000AF284B4D
:10043C009B69274A43F004039361254B9B6903F0A6
:10044C000403FB60FB68224B9B69214A43F00803C1
:10045C0093611F4B9B6903F00803BB60BB681C4B8B
:10046C009B691B4A43F001039361194B9B6903F091
:10047C0001037B607B6807F1100300221A605A604D
:10048C009A60DA6006233B6101237B610023BB6128
:10049C000223FB6107F1100319460E4800F0C6FA5F
:1004AC0001233B610C4B7B610223BB6107F1100301
:1004BC001946084800F0BAFA00220021062000F084
:1004CC007EFA062000F097FA00BF2037BD4680BDAB
:1004DC0000100240000801400000111080B590B0DF
:1004EC0000AF07F1180328220021184601F09CFAEE
:1004FC003B1D00221A605A609A60DA601A6101236F
:10050C00BB614FF48033FB6100233B6202237B63AE
:10051C004FF48033BB634FF4E013FB6307F1180314
:10052C00184600F037FC0F237B600223BB600023CE
:10053C00FB604FF480633B6100237B613B1D022118
:10054C00184600F0A9FE00BF4037BD4680BD000034
:10055C0080B500AF00F0D6F8FFF7C0FFFFF764FFDF
:10056C00FFF7F6FEFFF72AFF5A20FFF705FE0022E1
:10057C0002210F4800F0DEFB002204210C4800F0A1
:10058C00D9FB4FF47A7000F01FF90A4B1B780A3331
:10059C00DAB2084B1A70074B1B78B42B02D9054BF7
:1005AC0000221A70034B1B781846FFF7E5FDE8E7AD
:1005BC0000080140CD00002080B500AF012000F004
:1005CC00D1FB00BF80BD000080B500AF024801F038
:1005DC0097F800BF80BD00BF3800002080B500AF89
:1005EC00024801F08DF800BF80BD00BF80000020E4
:1005FC0080B485B000AF154B9B69144A43F00103DE
:10060C009361124B9B6903F00103BB60BB680F4BFA
:10061C00DB690E4A43F08053D3610C4BDB6903F06A
:10062C0080537B607B680A4B5B68FB60FB6823F044
:10063C00E063FB60FB6843F08063FB60044AFB688B
:10064C00536000BF1437BD4680BC70470010024099
:10065C000000014080B400AF00BFFDE780B400AFE4
:10066C0000BFFDE780B400AF00BFFDE780B400AF72
:10067C0000BFFDE780B400AF00BFFDE780B400AF62
:10068C0000BFBD4680BC704780B400AF00BFBD4604
:10069C0080BC704780B400AF00BFBD4680BC7047C3
:1006AC0080B500AF00F074F800BF80BD80B400AF1F
:1006BC0000BFBD4680BC7047FFF7F8FF0B480C49E4
:1006CC000C4A002302E0D458C4500433C4188C42A2
:1006DC00F9D3094A094C002301E013600432A24209
:1006EC00FBD301F0A9F9FFF733FF7047000000209E
:1006FC0010000020D01A000810000020D4000020A8
:10070C00FEE7000080B500AF084B1B68074A43F0BA
:10071C0010031360032000F047F90F2000F008F8D5
:10072C00FFF766FF0023184680BD00BF0020024083
:10073C0080B582B000AF7860124B1A68124B1B78F0
:10074C0019464FF47A73B3FBF1F3B2FBF3F318468B
:10075C0000F05FF90346002B01D001230EE07B680B
:10076C000F2B0AD8002279684FF0FF3000F027F9E0
:10077C00064A7B681360002300E001231846083703
:10078C00BD4680BD040000200C00002008000020A5
:10079C0080B400AF054B1B781A46054B1B681344FD
:1007AC00034A136000BFBD4680BC70470C0000209C
:1007BC00D000002080B400AF024B1B681846BD4629
:1007CC0080BC7047D000002080B584B000AF78604A
:1007DC00FFF7F0FFB8607B68FB60FB68B3F1FF3F8D
:1007EC0005D00A4B1B781A46FB681344FB6000BF0C
:1007FC00FFF7E0FF0246BB68D31AFA689A42F7D8B3
:10080C0000BF00BF1037BD4680BD00BF0C000020EC
:10081C0080B485B000AF78607B6803F00703FB60A1
:10082C000C4BDB68BB60BA684FF6FF031340BB6030
:10083C00FB681A02BB68134343F0BF6343F40033F5
:10084C00BB60044ABB68D36000BF1437BD4680BC94
:10085C00704700BF00ED00E080B400AF044BDB68D4
:10086C001B0A03F007031846BD4680BC704700BF47
:10087C0000ED00E080B483B000AF0346FB7197F944
:10088C000730002B0BDBFB7903F01F02064997F9AD
:10089C0007305B09012000FA02F241F8232000BF67
:1008AC000C37BD4680BC704700E100E080B483B0DB
:1008BC0000AF03463960FB7197F90730002B0ADB58
:1008CC003B68DAB20C4997F907301201D2B20B44EB
:1008DC0083F800230AE03B68DAB20849FB7903F09D
:1008EC000F03043B1201D2B20B441A7600BF0C3733
:1008FC00BD4680BC704700BF00E100E000ED00E0A9
:10090C0080B489B000AFF860B9607A60FB6803F01E
:10091C000703FB61FB69C3F10703042B28BF042306
:10092C00BB61FB690433062B02D9FB69033B00E076
:10093C0000237B614FF0FF32BB6902FA03F3DA4309
:10094C00BB681A407B699A404FF0FF317B6901FA12
:10095C0003F3D9437B680B40134318462437BD4639
:10096C0080BC704780B582B000AF78607B68013B7B
:10097C00B3F1807F01D301230FE00A4A7B68013B6E
:10098C0053600F214FF0FF30FFF790FF054B002213
:10099C009A60044B07221A60002318460837BD469C
:1009AC0080BD00BF10E000E080B582B000AF786081
:1009BC007868FFF72DFF00BF0837BD4680BD80B5B6
:1009CC0086B000AF0346B9607A60FB7300237B618D
:1009DC00FFF742FF78617A68B9687869FFF790FF92
:1009EC00024697F90F3011461846FFF75FFF00BF1C
:1009FC001837BD4680BD80B582B000AF0346FB7191
:100A0C0097F907301846FFF735FF00BF0837BD468A
:100A1C0080BD80B582B000AF78607868FFF7A2FF28
:100A2C00034618460837BD4680BD000080B48BB025
:100A3C0000AF7860396000237B6200233B6269E180
:100A4C0001227B6A02FA03F3FB613B681B68FA69BB
:100A5C001340BB61BA69FB699A4240F058813B680C
:100A6C005B689A4A93425ED0984A934275D8984AEA
:100A7C00934258D0964A93426FD8964A934252D09A
:100A8C00944A934269D8944A93424CD0924A9342E6
:100A9C0063D8924A934246D0904A93425DD8122B27
:100AAC002AD8122B59D801A252F823F0330B000884
:100ABC000D0B00081F0B0008610B0008670B0008EA
:100ACC00670B0008670B0008670B0008670B000832
:100ADC00670B0008670B0008670B0008670B000822
:100AEC00670B0008670B0008670B0008670B000812
:100AFC00150B0008290B0008794A934213D02CE0FF
:100B0C003B68DB683B6229E03B68DB6804333B6293
:100B1C0024E03B68DB6808333B621FE03B68DB6822
:100B2C000C333B621AE03B689B68002B02D1042318
:100B3C003B6213E03B689B68012B05D108233B62A9
:100B4C007B68FA691A6109E008233B627B68FA69E1
:100B5C005A6103E000233B6200E000BFBB69FF2B3E
:100B6C0001D87B6801E07B6804337B61BB69FF2B98
:100B7C0002D87B6A9B0002E07B6A083B9B003B61CE
:100B8C007B691A680F213B6901FA03F3DB431A40B6
:100B9C00396A3B6901FA03F31A437B691A603B68B3
:100BAC005B6803F08053002B00F0B1804D4B9B69C8
:100BBC004C4A43F0010393614A4B9B6903F00103D8
:100BCC00BB60BB68484A7B6A9B08023352F82330EF
:100BDC00FB607B6A03F003039B000F2202FA03F312
:100BEC00DB43FA681340FB607B68404A934213D0A6
:100BFC007B683F4A93420DD07B683E4A934207D0B4
:100C0C007B683D4A934201D1032306E0042304E0B0
:100C1C00022302E0012300E000237A6A02F00302BF
:100C2C0092009340FA681343FB602F497B6A9B0840
:100C3C000233FA6841F823203B685B6803F48013A5
:100C4C00002B06D02D4B9A682C49BB6913438B6043
:100C5C0006E02A4B9A68BB69DB43284913408B603A
:100C6C003B685B6803F40013002B06D0234BDA6857
:100C7C002249BB691343CB6006E0204BDA68BB69A1
:100C8C00DB431E491340CB603B685B6803F40033C5
:100C9C00002B06D0194B5A681849BB6913434B609B
:100CAC0006E0164B5A68BB69DB43144913404B6092
:100CBC003B685B6803F48033002B21D00F4B1A6820
:100CCC000E49BB6913430B6021E000BF00003210DA
:100CDC000000311000002210000021100000121042
:100CEC0000001110001002400000014000080140FB
:100CFC00000C0140001001400014014000040140B0
:100D0C000B4B1A68BB69DB43094913400B607B6AC8
:100D1C0001337B623B681A687B6A22FA03F3002B6F
:100D2C007FF48EAE00BF00BF2C37BD4680BC704731
:100D3C000004014080B483B000AF78600B467B8028
:100D4C0013467B707B78002B03D07A887B681A6102
:100D5C0003E07B881A047B681A6100BF0C37BD4620
:100D6C0080BC704780B582B000AF0346FB80084B57
:100D7C005A69FB881340002B06D0054AFB88536147
:100D8C00FB881846FFF75AFA00BF0837BD4680BDEE
:100D9C000004014080B586B000AF78607B68002B02
:100DAC0001D1012372E27B681B6803F00103002B65
:100DBC0000F08780924B5B6803F00C03042B0CD083
:100DCC008F4B5B6803F00C03082B12D18C4B5B68C8
:100DDC0003F48033B3F5803F0BD1894B1B6803F4CC
:100DEC000033002B6CD07B685B68002B68D101232F
:100DFC004CE27B685B68B3F5803F06D1804B1B6887
:100E0C007F4A43F4803313602EE07B685B68002BD1
:100E1C000CD17B4B1B687A4A23F480331360784BDC
:100E2C001B68774A23F4802313601DE07B685B68A2
:100E3C00B3F5A02F0CD1724B1B68714A43F480237D
:100E4C0013606F4B1B686E4A43F4803313600BE0E6
:100E5C006B4B1B686A4A23F480331360684B1B6826
:100E6C00674A23F4802313607B685B68002B13D0E4
:100E7C00FFF7A0FC386108E0FFF79CFC02463B69D9
:100E8C00D31A642B01D9032300E25D4B1B6803F4D6
:100E9C000033002BF0D014E0FFF78CFC386108E035
:100EAC00FFF788FC02463B69D31A642B01D9032354
:100EBC00ECE1534B1B6803F40033002BF0D100E042
:100ECC0000BF7B681B6803F00203002B63D04C4B04
:100EDC005B6803F00C03002B0BD0494B5B6803F0F1
:100EEC000C03082B1CD1464B5B6803F48033002B9E
:100EFC0016D1434B1B6803F00203002B05D07B6813
:100F0C001B69012B01D00123C0E13D4B1B6823F071
:100F1C00F8027B685B69DB00394913430B603AE0EC
:100F2C007B681B69002B20D0364B01221A60FFF71F
:100F3C0041FC386108E0FFF73DFC02463B69D31ADF
:100F4C00022B01D90323A1E12D4B1B6803F00203F3
:100F5C00002BF0D02A4B1B6823F0F8027B685B69EE
:100F6C00DB00274913430B6015E0264B00221A6067
:100F7C00FFF720FC386108E0FFF71CFC02463B69D8
:100F8C00D31A022B01D9032380E11D4B1B6803F0FC
:100F9C000203002BF0D17B681B6803F00803002BC5
:100FAC003AD07B689B69002B19D0174B01221A6031
:100FBC00FFF700FC386108E0FFF7FCFB02463B69D9
:100FCC00D31A022B01D9032360E10D4B5B6A03F0AA
:100FDC000203002BF0D0012000F09CFA1CE00A4B1D
:100FEC0000221A60FFF7E6FB38610FE0FFF7E2FB27
:100FFC0002463B69D31A022B08D9032346E100BFF2
:10100C00001002400000424280044242924B5B6A54
:10101C0003F00203002BE9D17B681B6803F0040387
:10102C00002B00F0A6800023FB758B4BDB6903F0D3
:10103C008053002B0DD1884BDB69874A43F08053DA
:10104C00D361854BDB6903F08053BB60BB68012324
:10105C00FB75824B1B6803F48073002B18D17F4BFC
:10106C001B687E4A43F480731360FFF7A3FB38615F
:10107C0008E0FFF79FFB02463B69D31A642B01D9AA
:10108C00032303E1754B1B6803F48073002BF0D032
:10109C007B68DB68012B06D16F4B1B6A6E4A43F0F1
:1010AC00010313622DE07B68DB68002B0CD16A4BCB
:1010BC001B6A694A23F001031362674B1B6A664A79
:1010CC0023F0040313621CE07B68DB68052B0CD156
:1010DC00614B1B6A604A43F0040313625E4B1B6A4C
:1010EC005D4A43F0010313620BE05B4B1B6A5A4AE7
:1010FC0023F001031362584B1B6A574A23F0040375
:10110C0013627B68DB68002B15D0FFF753FB38614B
:10111C000AE0FFF74FFB02463B69D31A41F28832D3
:10112C00934201D90323B1E04B4B1B6A03F002033A
:10113C00002BEED014E0FFF73DFB38610AE0FFF71F
:10114C0039FB02463B69D31A41F28832934201D9EA
:10115C0003239BE0404B1B6A03F00203002BEED1F0
:10116C00FB7D012B05D13C4BDB693B4A23F08053C3
:10117C00D3617B68DB69002B00F08780364B5B68A2
:10118C0003F00C03082B61D07B68DB69022B46D182
:10119C00334B00221A60FFF70DFB386108E0FFF7B4
:1011AC0009FB02463B69D31A022B01D903236DE0DC
:1011BC00294B1B6803F00073002BF0D17B681B6A72
:1011CC00B3F5803F08D1244B5B6823F400327B6875
:1011DC009B68214913434B601F4B5B6823F47412CB
:1011EC007B68196A7B685B6A0B431B4913434B6032
:1011FC001B4B01221A60FFF7DDFA386108E0FFF79C
:10120C00D9FA02463B69D31A022B01D903233DE0DC
:10121C00114B1B6803F00073002BF0D035E0104B22
:10122C0000221A60FFF7C6FA386108E0FFF7C2FA2D
:10123C0002463B69D31A022B01D9032326E0064B45
:10124C001B6803F00073002BF0D11EE07B68DB6998
:10125C00012B07D1012319E000100240007000405F
:10126C00600042420B4B5B68FB60FB6803F480320E
:10127C007B681B6A9A4206D1FB6803F470127B6888
:10128C005B6A9A4201D0012300E00023184618370C
:10129C00BD4680BD0010024080B584B000AF7860C0
:1012AC0039607B68002B01D10123D0E06A4B1B68AD
:1012BC0003F007033A689A4210D9674B1B6823F076
:1012CC00070265493B6813430B60634B1B6803F0D3
:1012DC0007033A689A4201D00123B8E07B681B6887
:1012EC0003F00203002B20D07B681B6803F004037F
:1012FC00002B05D0594B5B68584A43F4E0635360AC
:10130C007B681B6803F00803002B05D0534B5B680C
:10131C00524A43F460535360504B5B6823F0F00225
:10132C007B689B684D4913434B607B681B6803F0DB
:10133C000103002B40D07B685B68012B07D1474B26
:10134C001B6803F40033002B15D101237FE07B686D
:10135C005B68022B07D1414B1B6803F00073002B19
:10136C0009D1012373E03D4B1B6803F00203002BF2
:10137C0001D101236BE0394B5B6823F003027B68DE
:10138C005B68364913434B60FFF714FAF8600AE0C8
:10139C00FFF710FA0246FB68D31A41F288329342E7
:1013AC0001D9032353E02D4B5B6803F00C027B68DF
:1013BC005B689B009A42EBD1274B1B6803F0070339
:1013CC003A689A4210D2244B1B6823F00702224938
:1013DC003B6813430B60204B1B6803F007033A6810
:1013EC009A4201D0012332E07B681B6803F00403AE
:1013FC00002B08D0194B5B6823F4E0627B68DB6838
:10140C00164913434B607B681B6803F00803002BE1
:10141C0009D0124B5B6823F460527B681B69DB00BC
:10142C000E4913434B6000F021F802460B4B5B68EE
:10143C001B0903F00F030A49CB5C22FA03F3094A98
:10144C001360094B1B681846FFF772F90023184606
:10145C001037BD4680BD00BF002002400010024086
:10146C00A41A0008040000200800002080B487B0F3
:10147C0000AF0023FB600023BB6000237B610023D3
:10148C007B6000233B611E4B5B68FB60FB6803F0D9
:10149C000C03042B02D0082B03D027E0194B3B6123
:1014AC0027E0FB689B0C03F00F03174AD35C7B60AF
:1014BC00FB6803F48033002B10D0114B5B685B0C82
:1014CC0003F00103114AD35CBB607B680D4A03FB3C
:1014DC0002F2BB68B2FBF3F37B6104E07B680C4A5D
:1014EC0002FB03F37B617B693B6102E0054B3B61D3
:1014FC0000BF3B6918461C37BD4680BC704700BF17
:10150C000010024000127A00B41A0008C41A000835
:10151C0000093D0080B485B000AF78600A4B1B68B1
:10152C000A4AA2FB03235B0A7A6802FB03F3FB6003
:10153C0000BFFB685A1EFA60002BF9D100BF00BF38
:10154C001437BD4680BC704704000020D34D621098
:10155C0080B582B000AF78607B68002B01D101238D
:10156C0041E07B6893F83D30DBB2002B06D17B6801
:10157C00002283F83C20786800F039F87B6802225E
:10158C0083F83D207B681A687B6804331946104643
:10159C0000F0CAF97B68012283F846207B6801229F
:1015AC0083F83E207B68012283F83F207B68012270
:1015BC0083F840207B68012283F841207B6801225C
:1015CC0083F842207B68012283F843207B68012248
:1015DC0083F844207B68012283F845207B68012234
:1015EC0083F83D20002318460837BD4680BD80B4E3
:1015FC0083B000AF786000BF0C37BD4680BC70472D
:10160C0080B485B000AF78607B6893F83D30DBB276
:10161C00012B01D001233AE07B68022283F83D20A4
:10162C007B681B68DA687B681B6842F00102DA6031
:10163C007B681B68184A93420ED07B681B68B3F119
:10164C00804F09D07B681B68144A934204D07B6896
:10165C001B68134A934211D17B681B689B6803F08B
:10166C000703FB60FB68062B10D07B681B681A68AD
:10167C007B681B6842F001021A6007E07B681B68FC
:10168C001A687B681B6842F001021A600023184636
:10169C001437BD4680BC7047002C0140000400404C
:1016AC000008004080B483B000AF78607B681B6892
:1016BC00DA687B681B6822F00102DA607B681B68C1
:1016CC001A6A41F211131340002B0FD17B681B686F
:1016DC001A6A40F244431340002B07D17B681B6805
:1016EC001A687B681B6822F001021A607B68012271
:1016FC0083F83D20002318460C37BD4680BC70474C
:10170C0080B584B000AF78607B681B68DB68FB60D9
:10171C007B681B681B69BB60BB6803F00203002B72
:10172C0020D0FB6803F00203002B1BD07B681B68E6
:10173C006FF002021A617B6801221A777B681B68C2
:10174C009B6903F00303002B03D0786800F0D1F8F9
:10175C0005E0786800F0C4F8786800F0D3F87B688E
:10176C0000221A77BB6803F00403002B20D0FB681F
:10177C0003F00403002B1BD07B681B686FF0040282
:10178C001A617B6802221A777B681B689B6903F4D9
:10179C004073002B03D0786800F0ABF805E0786854
:1017AC0000F09EF8786800F0ADF87B6800221A779C
:1017BC00BB6803F00803002B20D0FB6803F0080380
:1017CC00002B1BD07B681B686FF008021A617B68CA
:1017DC0004221A777B681B68DB6903F00303002B78
:1017EC0003D0786800F085F805E0786800F078F8A8
:1017FC00786800F087F87B6800221A77BB6803F0E2
:10180C001003002B20D0FB6803F01003002B1BD01F
:10181C007B681B686FF010021A617B6808221A77CC
:10182C007B681B68DB6903F44073002B03D078687A
:10183C0000F05FF805E0786800F052F8786800F086
:10184C0061F87B6800221A77BB6803F00103002B58
:10185C000CD0FB6803F00103002B07D07B681B68DE
:10186C006FF001021A617868FEF730FDBB6803F077
:10187C008003002B0CD0FB6803F08003002B07D0F7
:10188C007B681B686FF080021A61786800F0C3F8FF
:10189C00BB6803F04003002B0CD0FB6803F0400343
:1018AC00002B07D07B681B686FF040021A617868C8
:1018BC0000F031F8BB6803F02003002B0CD0FB6860
:1018CC0003F02003002B07D07B681B686FF020020D
:1018DC001A61786800F096F800BF1037BD4680BDDD
:1018EC0080B483B000AF786000BF0C37BD4680BCBD
:1018FC00704780B483B000AF786000BF0C37BD4632
:10190C0080BC704780B483B000AF786000BF0C37E8
:10191C00BD4680BC704780B483B000AF786000BF18
:10192C000C37BD4680BC704780B485B000AF786082
:10193C0039607B681B68FB607B682F4A93420BD035
:10194C007B68B3F1804F07D07B682C4A934203D05D
:10195C007B682B4A934208D1FB6823F07003FB6031
:10196C003B685B68FA681343FB607B68224A9342CE
:10197C000BD07B68B3F1804F07D07B681F4A934232
:10198C0003D07B681E4A934208D1FB6823F4407352
:10199C00FB603B68DB68FA681343FB60FB6823F071
:1019AC0080023B685B691343FB607B68FA681A60D2
:1019BC003B689A687B68DA623B681A687B689A6253
:1019CC007B680D4A934203D13B681A697B681A63A2
:1019DC007B6801225A617B681B6903F00103002BB1
:1019EC0005D07B681B6923F001027B681A6100BF7C
:1019FC001437BD4680BC7047002C014000040040E9
:101A0C000008004080B483B000AF786000BF0C3792
:101A1C00BD4680BC704780B483B000AF786000BF17
:101A2C000C37BD4680BC704703460244934200D13C
:101A3C00704703F8011BF9E770B500260C4D0D4CEF
:101A4C00641BA410A64209D100F01AF800260A4D16
:101A5C000A4C641BA410A64205D170BD55F8043B7A
:101A6C0098470136EEE755F8043B98470136F2E704
:101A7C00C81A0008C81A0008C81A0008CC1A0008AE
:101A8C00F8B500BFF8BC08BC9E467047F8B500BF5F
:081A9C00F8BC08BC9E4670472F
:101AA400000000000000000001020304060708090A
:101AB40002030405060708090A0B0C0D0E0F10108B
:041AC400010200001B
:041AC80031010008E0
:041ACC000D01000800
:101AD0008813000000127A001000000001000000CE
:04000005080006C524
:00000001FF
